:100000000C9492010C94AF010C94AF010C94AF01CD
:100010000C94AF010C94AF010C94AF010C94AF01A0
:100020000C94AF010C94AF010C9422210C94F62196
:100030000C94C61B0C94AF010C94AF010C94AF014F
:100040000C94AF010C94AF010C94AF010C94AF0170
:100050000C94AF010C943E1C0C94AF010C94AF01B6
:100060000C94AF010C94AF010C94AF010C94AF0150
:100070000C94AF010C94AF010C94AF010C94AF0140
:100080000C94AF010C94AF010C94AF010C94AF0130
:100090000C94AF010C94AF010C94AF010C94AF0120
:1000A0000C94AF010C94AF010C94AF015B005C00A9
:1000B00059005A006200000000000000000000002B
:1000C0002A2B2800000000000000000000000000B3
:1000D00000000029000000002C1E342021222434BE
:1000E0002627252E362D3738271E1F202122232490
:1000F00025263333362E37381F0405060708090A2C
:100100000B0C0D0E0F101112131415161718191AC7
:100110001B1C1D2F3130232D350405060708090A45
:100120000B0C0D0E0F101112131415161718191AA7
:100130001B1C1D2F3130354C00000000000000005A
:1001400000000000000000000000000000000000AF
:100150000000000000000000000000007E0F00D43E
:10016000FFFFFFC700000078100333007800320063
:100170005F0070006100640000001A034C006C0016
:100180006F00720065006E00630020004200750081
:1001900069006C0000000403090409025B0003010C
:1001A00000A0FA0904000001030101000921110166
:1001B0000001224400070581030800010904010031
:1001C000020300000009211101000122220007059D
:1001D0008203200001070503032000010904020037
:1001E000010300000009211101000122B6000705EA
:1001F000840320000112010002000000084B52326B
:10020000330001010200010660FF0961A1010962DA
:10021000150026FF00952075088102096315002648
:10022000FF00952075089102C005010902A1018512
:10023000020901A1000509190129081500250195E8
:1002400008750181020501093009311581257F9565
:10025000027508810609381581257F950175088189
:1002600006050C0A38021581257F9501750881065F
:10027000C0C005010980A101850319012AB7001535
:100280000126B700950175108100C0050C0901A178
:1002900001850419012AA002150126A00295017505
:1002A000108100C005010906A1018506050719E0B6
:1002B00029E7150025019508750181020507190038
:1002C00029EF1500250195F0750181020508190136
:1002D0002905950575019102950175039101C005E8
:1002E000010906A101050719E029E7150025019577
:1002F000087501810295017508810105071900291A
:10030000FF150026FF0095067508810005081901F4
:1003100029051500250195057501910295017503C3
:100320009101C00011241FBECFEFDAE0DEBFCDBFC8
:1003300011E0A0E0B1E0EAE8F9E402C005900D9216
:10034000A23AB107D9F722E0A2EAB1E001C01D92BA
:10035000AF38B207E1F70E94FF100C9471240C949F
:100360000000811111C0633078F4423068F4E62F48
:10037000F0E0EE0FFF1FE40FF11DEE0FFF1FE4553D
:10038000FF4F85919491089581E090E0089581E078
:1003900008950E94C70108950E94C701089581E051
:1003A00008950E94C70108950E94C70108950E9400
:1003B000D4010895089508950E94DA0108950895DA
:1003C0000895A6E0B0E0E7EEF1E00C94CD23498378
:1003D0005A839E833091A90189819A8131111AC073
:1003E0003E81332399F0222389F00E948E07182F33
:1003F000682F89819A810E946B0769817A81812F98
:100400000E94CD0E2696E3E00C94E9230E947C071F
:10041000182FF3CF0E948E0769817A81F1CFFC01FA
:10042000262F4081518162817381848195810E9450
:10043000E1010895CF93DF93EC0161E00E940F0288
:10044000BE010E94C901882359F061E0CE010E94DB
:100450000F02BE010E94CC018170DF91CF910895FF
:1004600080E0FACF0F931F93CF93DF93EC0160E00E
:100470000E940F028C01BE010E94DB01BE01C80177
:100480000E94DC01DF91CF911F910F91089591E0BF
:1004900001C0990F8A95EAF7892F0E94B206089544
:1004A000CF93C82F81E00C2E01C0880F0A94EAF781
:1004B0000E941C0C8C2F0E944702CF91089581E06E
:1004C00008950E945F0208950E945F020895CF93ED
:1004D000C82F0E9467068C2F0E9461028C2F0E94F9
:1004E00064022FEF84E39CE0215080409040E1F7CC
:1004F00000C00000CF91089581E00E9467020E9431
:10050000621C089580E00E9467020E94731C089597
:100510000F931F93CF93DF938C0161E00E940F0232
:10052000EC01B8010E94D101811106C080E0DF9189
:10053000CF911F910F910895B801CE010E94D7016C
:100540008823A1F3B801CE010E949818882371F383
:10055000B801CE010E94A517882341F3B801CE014E
:100560000E94CE12882311F3B801CE010E94A4127A
:100570008823E1F2B801CE010E94E9178823B1F285
:10058000B801CE010E94D10F882381F2F801858144
:10059000882361F0C330FCE7DF07E9F058F4C115A8
:1005A000ECE7DE07A9F0C130DC47B9F0C8010E94D2
:1005B000CF01BDCFCB358CE7D807A9F0CC35ECE720
:1005C000DE0771F0CA35DC4789F70E94F70BEECFE2
:1005D0000E947C02ABCF0E94FF0B0E948202A6CF3A
:1005E0000E94ED0BE3CF0E94FB0BE0CF0E94DF01E6
:1005F0000E94991B0E941A0308950E941E030E94E4
:10060000E0010E949E1B089581E008950895CF9314
:10061000DF93D82F0E940403C82F882319F08D2F51
:100620000E9406038C2FDF91CF91089508950E94B8
:100630000703089580E00E94170308950E9484191B
:100640000E9417030895CF930E948419C82F8091A8
:10065000A4018C1779F0C093A4010E94321C60930E
:10066000A5017093A6018093A7019093A8018C2FF8
:100670000E941703CF910895ADE0B0E0E2E4F3E00B
:100680000C94CE23488759876A877B878C879D8700
:1006900091110E94FD0A1F8286E0FE013896DE015C
:1006A000119601900D928A95E1F78D8181110DC00F
:1006B00029813A814B815C816D817E818F810E948D
:1006C000470A2D96E2E00C94EA23CE0101960E949F
:1006D0001A028111EDCFF5CFFC012481213021F4E4
:1006E000808191810E94BB070895662329F00E94B2
:1006F0002F140E94021508950E948914FACFCF93F7
:10070000C82F882399F08CEF8C0F813A88F48C2FB6
:100710000E94241A882329F08C2F0E94CA1A0E9452
:10072000910B8C2F0E94B01A0E94910BCF910895CB
:1007300080E28C0F883048F4C77081E001C0880FD8
:10074000CA95EAF70E94E00AEFCFEBE5EC0FE33041
:1007500040F4F0E0ED5AFE4F808190E00E94B8191D
:10076000E5CFE8E5EC0FEB3150F4F0E0EE0FFF1FC2
:10077000E35EFE4F808191810E94DD19D7CF83E334
:100780008C0F833198F661E08C2F0E947503CECFD9
:10079000882381F19CEF980F913A28F40E94CA1A9D
:1007A0000E94910B089590E2980F983050F4877052
:1007B00091E001C0990F8A95EAF7892F0E94E60A15
:1007C000EFCF9BE5980F933028F490E080E00E94F3
:1007D000B819089598E5980F9B3128F490E080E0CF
:1007E0000E94DD19089593E3980F933118F460E0A7
:1007F0000E94750308951F93CF93DF93182FEB0189
:100800000E947F03209739F4812F0E94C803DF9153
:10081000CF911F9108958FE99FE00197F1F700C0F4
:1008200000002197EFCF70E060E0893311F460E5BC
:1008300070E00E94FB030895882321F00E94E00AE3
:100840000E94910B0895882321F00E94E60A0E94DD
:10085000910B0895B0E0A0E0E0E3F4E00C94C7232E
:100860006C01D62FC72FFC011581068102950F70F0
:100870000E94D60AE82E8823F9F0E12E1123E1F038
:100880008C2F807F803461F080E28D0F883008F1FA
:100890008C2F807E803221F4D230D8F00023C9F032
:1008A0008091770282FF15C082E00E94C10B0E94F6
:1008B000D60A91E0E82EE926BC2EB2949FE0B92238
:1008C000FBE0FB15B8F1EB2DF0E0ED58FB4D0C947F
:1008D000B123E12CF1CF0C2F0F70C07F11F00295E6
:1008E000007F112399F0002359F080E28D0F8830AA
:1008F00010F0D11107C0802F0E94E00A0E94910BD6
:100900008D2F48C0802F0E94F00AF8CF8D2F0E94B3
:10091000C803002379F080E28D0F883010F0D111E8
:1009200004C0802F0E94E60A03C0802F0E94F60AAE
:100930000E94910BEB2DE850FF0B349708F061C13A
:100940000E9484190E941703CDB7DEB7E9E00C942A
:10095000E3232C2F2F70F22EC07FC03219F0F294B7
:1009600080EFF822DD2341F0D130C9F1112309F4E1
:1009700043C00023E9F0C4CF8091770282FD14C008
:10098000112359F0FF2029F08F2D0E94E00A0E94C8
:10099000910B80E00E947F03CDCF80E00E94C803CE
:1009A000FF2041F28F2DBECF112369F0011104C049
:1009B0008F2D0E941C04BECF013009F0BBCF8F2DBC
:1009C0000E94140BB7CF0111B5CF8F2D0E942304C5
:1009D0008F2D0E94200B8F2D0E94040BABCF112373
:1009E00021F0063008F0A6CFE3CF053008F0A2CF03
:1009F0008F2D0E9423049ECF0023D1F3D93349F4D5
:100A00003FEF87EE93E0315080409040E1F700C027
:100A100000008D2F0E94C8038DCF8C2F8695869560
:100A2000837069F0813009F085CF8D2F9C2F9370F2
:100A3000111102C080E090E00E94DD197BCF8D2F64
:100A40009C2F9370111102C080E090E00E94B819B1
:100A500071CF612F8D2F0E9475036CCF8C2F837007
:100A600079F5111167CF4D2F429546954770440F88
:100A7000440F8D2F8F70042E01C0880F0A94EAF75F
:100A80002D2F2071D4FF07C02FE030E001C0220FCE
:100A90004A95EAF72095C695C695C370822BC23059
:100AA00049F058F4C13019F00E94BB0643CF0E94B0
:100AB000B50640CF0E94C1063DCF0E94B2063ACF94
:100AC0008695112311F08C2F8170882309F432CF81
:100AD0004D2F429546954770440F440F8D2F8F70D0
:100AE000042E01C0880F0A94EAF72D2F2071D4FF3D
:100AF00007C02FE030E001C0220F4A95EAF72095A9
:100B0000C695C695C370822BC23049F058F4C130E7
:100B100019F00E940A070ECF0E9404070BCF0E9413
:100B2000100708CF0E94CD0605CFCF70112329F002
:100B30008C2F0E94DF068D2F3CCF8D2F0E94230427
:100B40008C2F0E94EB06F6CED23F41F160F4D03FED
:100B5000B9F0D13F81F0112309F443C00111D0CE87
:100B60008C2F8F711FC0D33F01F1D43FA1F780912B
:100B7000770282FD24C08C2F8F71112311F312C0D4
:100B8000112341F0053008F0D5CE8C2F8F710E94D3
:100B9000F806D0CE063008F0CDCEF7CF8C2F8F716F
:100BA0001111CFCF0E94DF06C5CE112329F08C2F63
:100BB0008F710E94D606BECE0E94D206BBCE1123F4
:100BC00031F063E08C2F8F710E94A30BB3CE81E0D4
:100BD0000E94C10B023008F4ADCE82E00E94C10B2E
:100BE000A9CE002359F0D93309F013CFEFEFF7EE78
:100BF00023E0E150F0402040E1F709CF8C2F8F71C6
:100C0000A0CFEE2009F4A0CE0E94D20A80FD9CCE97
:100C1000F60115820E94CC0A0E94DF06C6010E94DE
:100C20002E060E94CC0A0E94EB068ECE0F931F93D5
:100C3000CF93DF93EC01688179818D810E94C60793
:100C40008C010E9416070E94B106B801CE010E94D5
:100C50002A04DF91CF911F910F910895CF93DF93D5
:100C6000EC018C81882399F0CE010E9488028111C9
:100C700011C00E94D60A882351F08D81882339F053
:100C80008091770282FF03C082E00E94C10BDF9156
:100C9000CF910895CE010E941606CE010E94320225
:100CA000F6CF90E080E00E94B81990E080E00E94CA
:100CB000DD190E94FD0A0E94910B0E941E150E94E0
:100CC000021508950E94E41A0E94510608950E9498
:100CD000ED0A0E946206089592959F70963091F0F9
:100CE00058F4925F9F70923058F4803F19F030F4BE
:100CF000883E30F481E008959A5FF4CF843FD1F3C9
:100D000080E00895883EB0F3813FD1F7F3CFFC0136
:100D10002481222339F0808191810E94BB070E94A7
:100D20006C06089580E00895A6E0B0E0EAE9F6E0F8
:100D30000C94CE232696E2E00C94EA23A7E0B0E0E0
:100D4000E4EAF6E00C94CE232796E2E00C94EA2342
:100D500008950E94A80608950E94A9068093AE01F6
:100D6000089508950E94AC0608959091AE01892BD4
:100D70000E94AC0608959091AE0189230E94AC06B2
:100D800008959091AE0189270E94AC0608950E94B3
:100D9000A80608950E94C70608950E94CA06809377
:100DA000AD01089580E00E94CD06089591E001C054
:100DB000990F8A95EAF7892F0E94CD06089521E0C0
:100DC00030E001C0220F8A95EAF78091AD01822BB5
:100DD0000E94CD06089521E030E001C0220F8A95DF
:100DE000EAF720958091AD0182230E94CD060895F7
:100DF00021E030E001C0220F8A95EAF78091AD0131
:100E000082270E94CD0608959091AD01892B0E9402
:100E1000CD0608959091AD0189230E94CD060895D5
:100E20009091AD0189270E94CD0608950895262F3F
:100E3000277091E001C0990F2A95EAF723E0769593
:100E400067952A95E1F7FB01EE0FFF1FE60FF71FED
:100E5000E40FF51F50E040E0682F70E08191DF0162
:100E600011979B01042E02C0369527950A94E2F74C
:100E7000217021952827292328272C934F5F5F4F26
:100E80004330510559F70895A82FA77023E0969590
:100E900087952A95E1F7FC01EE0FFF1FE80FF91F78
:100EA000E60FF71F50E040E080E0219130E00A2E8D
:100EB00002C0369527950A94E2F721703327042E55
:100EC00001C0220F0A94EAF7822B4F5F5F4F433035
:100ED000510559F70895262F933068F4823058F45D
:100EE000692F70E0660F771F680F711D4AEA51E0A5
:100EF000822F0E9417070895933070F4823060F4B7
:100F0000292F30E0220F331F6AEA71E0820F932FFE
:100F1000911D0E944407089580E00895CF92DF92CA
:100F2000FF920F931F93CF93DF936C010091AD015C
:100F30008091AE01082BC3E0D0E010E0FC2EC80188
:100F40000C2E02C0959587950A94E2F780FD0CC09F
:100F50002197A0F7F12C8F2DDF91CF911F910F9149
:100F6000FF90DF90CF900895B6018C2F0E94D90E8C
:100F7000019771F3F0CFCF93DF93EC010E948E07BE
:100F8000BE010E94D90EDF91CF9108951F93CF9398
:100F9000DF93EB019091A901992339F0CB010E94D5
:100FA000BB07DF91CF911F910895882369F0CB0192
:100FB0000E948E07182F682FCE010E946B07BE017A
:100FC000812F0E94D90EEDCFCB010E947C07182FF4
:100FD000F6CFE1E0F0E0DF0102C0AA0FBB1F6A9587
:100FE000E2F7BD01DF0102C0AA0FBB1F4A95E2F77D
:100FF0006A2B01C0EE0F2A95EAF7962F98239613D5
:1010000002C08E2B0895E0958E230895242F462F3D
:10101000682F8091AD010E94E9070E94CD060895D6
:101020001F93CF93DF93C091AF0117E08091B00180
:101030008C1304C0DF91CF911F910895D0E01C9FC5
:10104000F0011D9FF00D1124EF54FE4F20813181DE
:10105000428153816481758186810E949E0621961A
:10106000C770E4CF2091E9013091EA014091EB0192
:101070005091EC016091ED017091EE018091EF01D2
:101080000E949E060895CF93DF938091EF01807FA9
:1010900009F04DC08091EE01882309F448C0E09129
:1010A000AF015091B001C091EA01D091E901609186
:1010B000EB017091EC0147E05E17C9F18E2F90E0D3
:1010C000E49FF0011124EF54FE4F2481222391F17B
:1010D000489FF001499FF00D1124DF01AF54BE4F2E
:1010E00011962C9111972C1325C02C912D1322C0F1
:1010F00015962C91159721111DC012962D913C919A
:10110000261B370B283C3105A8F48091EF018F7026
:1011100080618093EF01E954FE4F80818F70806180
:10112000808389EE91E00E942E060E941008DF91D4
:10113000CF910895FC013196E770BECF482F2091E2
:10114000AF019091B00157E0291302C080E00895EB
:1011500030E0529FF001539FF00D1124EF54FE4FE9
:101160008181681306C08081481303C08581811185
:10117000EECF2F5F3F4F2770E7CFA4E1B0E0E3EC65
:10118000F8E00C94C4238C0186E0F801DE011F9680
:1011900001900D928A95E1F7F8018481E58099EE3E
:1011A000A92E91E0B92E9091ED0191111FC08823D5
:1011B000D1F0EE20A9F0C8010E948706F82E8823FE
:1011C00079F087E0F801D50101900D928A95E1F759
:1011D000C5010E946C030E9443080E9432085FC050
:1011E000C8010E942E06FF24F39459C0C080D1800C
:1011F00082809380F090EE012091EB013091EC0120
:10120000A401421B530BFF2009F4F9C0483C5105CF
:1012100008F0A7C0882309F442C09091EA018091A8
:10122000EF01282F207F09F05CC09D1116C090911E
:10123000E901C91212C0E1104EC08F708061809325
:10124000EF010E94320889EE91E00E942E06809103
:10125000EF01F8018683F12C22C0E1103CC06D2D16
:101260008C2D0E949E086D2D8C2D0E949E08E82ECC
:101270008111F1CFCF86D88A8F8598890E94BB07CC
:10128000292F22952F70243078F49F702230A8F0F7
:101290009923B9F0F8019681907F99F4FE2C8F2D57
:1012A0006496ECE00C94E0232A5F2F70223068F003
:1012B000C8010E942E06EF2CF1CF992311F088234C
:1012C00069F3805E883050F3F3CF803F38F3815F5D
:1012D000833070F7E3CF8091EF0181608093EF015D
:1012E000BACF9D1113C09091E901C9120FC0E1104E
:1012F0000DC08683C8010E942E0687E0F801A9EE82
:10130000B1E001900D928A95E1F767CFC8010E9484
:101310008706882309F464CFEE2009F461CF809119
:10132000EF01803288F02091E9013091EA0139879C
:1013300028879B868A869091ED019C871D868E87E3
:10134000CE0108960E942E0687E0F801A9EEB1E0D2
:1013500001900D928A95E1F70E9443080E9432089D
:1013600042CF9091EF01292F207FA1F4682D9A8A16
:10137000898AA6017A899E2D0E94940689EE91E0C1
:101380000E942E0687E0F50111928A95E9F70E94E6
:10139000320861CF882309F482CF8091EA018D1150
:1013A00010C08091E901C8120CC0E1100AC09683F8
:1013B000C8010E942E0687E0F50111928A95E9F78F
:1013C0006ECFC8010E948706882309F409CFEE205A
:1013D00009F406CF8091EF01803208F4B5CF209157
:1013E000E9013091EA013A8329839C828B829091B2
:1013F000ED019D831E828F83CE010196A3CF483CD1
:101400005105B8F5882309F4EECEFE2CEE2009F440
:10141000E7CE8091EA018D111EC08091E901C812CA
:101420001AC08091EF0180FD0DC0982F907F51F080
:101430008683903F09F45ECF982F907F905F8F70E6
:10144000892B57CF87E0F801A9EEB1E001900D920A
:101450008A95E1F724CFC8010E948706811174CFD5
:101460008091EF0181608093EF01C8010E942E06F8
:1014700016CF682D9A8A898AA6017A899E2D0E94A4
:10148000940687E0F50111928A95E9F7A6CEAEE0C1
:10149000B0E0EDE4FAE00C94CD23288739874A8741
:1014A0005B876C877D878E87CE0108960E94BD087A
:1014B0008823B1F06C85662341F0288539854A85FB
:1014C0005B857D858E850E949E0617E08091AF0129
:1014D0009091B00189133DC02E96E3E00C94E9236E
:1014E00087E0FE013896DE01119601900D928A95F3
:1014F000E1F78C85882349F32091B00130E0C901E0
:101500000196877099274091AF014817190699F005
:1015100097E0929FD001939FB00D1124AF54BE4F1E
:10152000FE01319601900D929A95E1F78093B001FA
:101530000E941008CACF0E9467061092B001109254
:10154000AF0187E0E9EEF1E0DF011D928A95E9F74E
:10155000BCCF819FC00111248F549E4F0E94BD08B3
:10156000882309F4B9CFE091AF011E9FF001112447
:10157000EF54FE4F20813181428153816481758116
:1015800086810E949E068091AF0190E0019687704F
:1015900099278093AF019ACF8091180286958695FE
:1015A0008695089580911802877008959091180289
:1015B000977081E009F480E00895809144020895D5
:1015C00090914402892B80934402089580959091D4
:1015D000440298239093440208951092440208957F
:1015E00090914302892B80934302089580959091B6
:1015F0004302982390934302089510924302089562
:1016000008950E94000B089590911902292F282314
:1016100031F080958923809319020E94010B08956F
:1016200008950E94100B089590911A02292F2823E3
:10163000281729F0982B90931A020E94110B0895F5
:1016400090911A02292F282331F0809589238093C5
:101650001A020E94110B089580911A02882329F022
:1016600010921A0280E00E94110B0895CF93C0914E
:10167000440280914302C82B80911A02882331F0E2
:10168000C82B0E94021A81110E942C0B8C2FCF9123
:101690000895CF93DF93C0910201D09103010E947E
:1016A000360B8883C0910201D091030148E050E0DD
:1016B00060E172E0CE010E940924892B59F088E094
:1016C000FE01A0E1B2E001900D928A95E1F7CE0112
:1016D0000E949119DF91CF910895CF93DF93C0912C
:1016E0000001D09101010E94360B8983C091000155
:1016F000D091010140E250E060EF71E0CE010E9424
:101700000924892B59F080E2FE01A0EFB1E001909D
:101710000D928A95E1F7CE010E949C19DF91CF913D
:1017200008950E94741B813039F48091760287FFFE
:1017300003C00E946D0B08950E94490B08950895FF
:101740000E949F0B08959091770292FF11C098E03C
:10175000899F90011124622B609318020E94DF067A
:10176000809118028695869586950E94A00B089513
:101770000E94DF0608951092180280E00E94A00BDC
:101780000895909118028095892380931802282F3C
:10179000277069F4891759F09091770292FF07C07A
:1017A0008695869586950E94EB060E94BB0B089550
:1017B0009091770292FB222720F9281769F080FB8D
:1017C00092F99093770280917602909177020E942D
:1017D000270C82E00E94C10B08958091770282FB62
:1017E000882780F991E089270E94D80B089581E02D
:1017F0000E94D80B089580E00E94D80B08956FEFE7
:101800007FEF90E080E00E945B24089590E080E00C
:101810000E942724853E9E4F19F40E943218089595
:1018200080E0089582E090E00E941F24089583E004
:1018300090E00E941F240895682F83E090E00E94AA
:101840003D24089584E090E00E9427240895BC017F
:1018500084E090E00E945B240895AB01BC018FE01E
:1018600090E00E944F240895AB01BC0183E190E019
:101870000E944F24089560E070E0CB010E94340C78
:10188000089560E070E0CB010E942D0C0E943B0C9B
:101890000895A8E0B0E0EFE4FCE00C94CE2365EE00
:1018A0007EEF90E080E00E945B2460E082E090E0C8
:1018B0000E943D2481E08093AE010E941C0C60E0F8
:1018C00074E184E090E00E945B2460E086E090E0B8
:1018D0000E943D2460E087E090E00E943D2440E0CB
:1018E00050E0BA0188E090E00E944F2460E083E27B
:1018F00090E00E943D2460E08CE090E00E943D2456
:1019000060E08DE090E00E943D2419821A821B82E3
:101910001C821D821E821F82188648E050E067E10B
:1019200070E0CE0101960E942D2440E050E0BA0103
:101930008FE190E00E944F2480E00E944B180E94AB
:101940007A180E94410C2896E2E00C94EA230E9447
:10195000490C0895682F8EE090E00E943D24089580
:10196000A6E0B0E0E6EBFCE00C94CC230E94261C41
:101970008C0180914502909146028017910781F079
:1019800019821A820E94261C682F49815A81792F58
:1019900080E090E00E943C031093460200934502D1
:1019A0002696E4E00C94E8230E94321C60934E02D9
:1019B00070934F02809350029093510260934A02B9
:1019C00070934B0280934C0290934D0208950895BA
:1019D00008950E94E70C089508950E94EC0C0E945F
:1019E000E90C089508950E94F20C089508950E944C
:1019F000F60C0E94F30C08958FEC9FE00E941611E4
:101A00000E94E80C0E94ED0C089581E008950E9468
:101A1000050D08950E94050D0895089508950895EF
:101A20000E940D0D0E940E0D0E940F0D08950E9440
:101A3000060C811102C00E94A70C0E94120C809318
:101A400052020E94220C90937702809376020E94A9
:101A500039110E94170C0E94B2068091AD010E94BC
:101A6000CA0608950E941D1C0E948A180E946D10CB
:101A70000E94170D0E9416030E94F70C0895A6E01D
:101A8000B0E0E5E4FDE00C94C5230E94070D811150
:101A90000AC00E94B00C0E9440150E9423032696A3
:101AA000EBE00C94E1230E9483101091470280E048
:101AB0000E94EB0F18130EC01091480281E00E94A3
:101AC000EB0F811307C01091490282E00E94EB0FD7
:101AD0001817F9F28091520281FD0E94F10F0E94C5
:101AE0000A0DA82E87E4C82E82E0D82E10E0992493
:101AF0009394812F0E94EB0F082FF60181916F01C3
:101B0000081721F1E02EE826B12CFF24F3948E2D46
:101B10008F21A9F0AA2099F0B9821A830E94261C6D
:101B20009C838B839D8291E0802F8F2109F490E02C
:101B300049815A816B817C818D810E943C03FF0C1D
:101B4000F1E0BF1209C0F601319700831F5F133027
:101B500081F60E94D40C9FCFBB24B394D8CF1F939F
:101B6000CF93DF930E94DE0EEC01C11580E5D8070C
:101B7000F0F5C11580E4D80708F09CC0C03ED1053F
:101B800020F5CD3CD10508F082C0C83AD10578F4E3
:101B9000C53AD10508F073C0C130D10519F12097BD
:101BA00009F1C430D105F0F4D0E0C0E01BC0C33C63
:101BB000D105D0F7C85AD0E0CC0FDD1FCA5ADE4F8E
:101BC0000990D881C02DD4640DC0C11580E2D8071A
:101BD00008F0D1C0C11581E0D80708F05AC0C83E4E
:101BE000D10510F7CE01DF91CF911F910895C03636
:101BF00082E5D80718F5C03482E5D80708F06BC035
:101C0000C03282E5D80708F05FC0C11582E5D80769
:101C100008F497C02C2F2695269580E2289F9001E6
:101C200011248C2F8370C1E0D0E002C0CC0FDD1FE7
:101C30008A95E2F7C22BD32BDD68D4CFC03A82E578
:101C4000D80760F4C03882E5D80708F459C0CF71CE
:101C5000D0E0DC2FCC27C46FD06AC4CFC03C82E573
:101C6000D80708F462C0C03E82E5D80708F09CCFD0
:101C7000DC2FCC27CC27DF71C06FD06AB3CFC55A19
:101C8000D0E0C457DE4FC881D0E0D064ABCFD06580
:101C9000A9CF8D2F0E94800F182FCE0199270E9467
:101CA000DE0EC12FD0E0DC2FCC27CC27DF71C82B74
:101CB000D92B98CFCE0199270E94DE0ECC27DF705A
:101CC000C82BD92BD06A8ECFCF71D0E0DC2FCC2798
:101CD000C16FD06A87CF2C2F26952695277080E27A
:101CE000289F900111248C2F8370C1E0D0E002C0A6
:101CF000CC0FDD1F8A95E2F7C22BD32BDC6872CFA5
:101D00002C2F26952695277080E2289F900111247C
:101D10008C2F8370C1E0D0E002C0CC0FDD1F8A950C
:101D2000E2F7C22BD32BDA685DCF8C2F8F710E9424
:101D3000800FC82FD0E0DC2FCC27CC27DF71D062FA
:101D400051CF8C2F8F710E94800F55E0D695C7958B
:101D50005A95E1F7CF70D0E0DC2FCC27282F30E068
:101D600084FF05C044E0220F331F4A95E1F7C22BE0
:101D7000D32BD06937CF8D2F8F710E94800F182FF2
:101D8000CE0199270E94DE0EC12FD0E0DC2FCC2798
:101D9000CC27DF71C82BD92BD2CF462F733030F42C
:101DA000623020F4672F0E940A12089590E080E0CC
:101DB00008950E94CD0E0E94AF0D089582389105BE
:101DC000B9F1B0F48133910509F47DC048F489324A
:101DD000910509F46DC08A32910509F47BC008951C
:101DE0008533910509F45FC08933910509F10895A0
:101DF000833E9105D9F138F4803E910529F1823E68
:101E0000910579F10895863E9105D9F1873E9105B6
:101E100009F43EC0843E910541F52091770221FFEF
:101E200024C08091760284FD19C087EE90E0089569
:101E300020917602237009F05AC02091770223FF87
:101E400014C089E290E008952091760220FD38C008
:101E50003091770230FF09C024FF43C090E080E05A
:101E600008952091760222FDF7CF08952091760201
:101E700022FD3AC03091770230FD39C024FFF5CF02
:101E8000EDCF2091760223FFF0CF24FDE7CFCDCF19
:101E90002091760223FD2EC03091770231FFEECFE4
:101EA00084EE90E008952091760225FFDECFC9CF21
:101EB0002091760225FD21C02091770223FFD5CF06
:101EC00089E390E0D2CF2091760226FFCECF8AE23E
:101ED00090E008952091760226FFC7CF81E390E03D
:101EE000089583EE90E0089582EE90E0089580EEEC
:101EF00090E0089586EE90E0089585E390E00895DF
:101F00009091760292FF10C041E0282F2471243076
:101F100009F040E031E0282F2871283009F030E046
:101F2000431711F02CE0822793FF10C041E0282FC7
:101F30002471243109F040E031E0282F2871283144
:101F400009F030E0431711F02CE08227309177023E
:101F500030FF10C051E0282F2171213009F050E0EE
:101F600041E0282F2871283009F040E0541711F083
:101F700029E0822731FF10C041E0282F2171213153
:101F800009F040E031E0282F2871283109F030E0D5
:101F9000431711F029E0822794FD877E089580E0A1
:101FA0000895CF939C01205E3245C1E02032310577
:101FB00038F4FB01C581C11103C08F710E9450022A
:101FC0008C2FCF91089508950E94E30F08950895EE
:101FD0000E94E70F0895E82FF0E0E558FD4F80815B
:101FE0000895089580EA8A95F1F7089500C008954C
:101FF0000E94F20F0895F894E82FE295EF70F0E058
:1020000031A1282F2F7081E090E001C0880F2A9520
:10201000EAF7982F9095932391A392A1892B82A3FD
:102020007894089587EF0E94FB0F82E30E94FB0FD4
:1020300086E30E94FB0F81E30E94FB0F83E30E9473
:10204000FB0F0895B0E0A0E0E8E2F0E10C94C823B3
:10205000EC01C62E062F10E0C80181579E4F7C016F
:10206000FC0180818F3F91F1F894E82FE295EF70A9
:10207000F0E091A18F7021E030E001C0220F8A953D
:10208000EAF7892F822B81A382A12095282322A3FE
:1020900078940E94F60FD3B0D1FA882780F9DD2416
:1020A000D394D8261B9917C082E0D82AF7018081E3
:1020B0008F3F11F00E94FB0F61E0D11001C060E082
:1020C0008C2D0E94F80FC00FD11FD882CDB7DEB77C
:1020D000E8E00C94E42380E0E8CF0E94121083E053
:1020E000EBE7F2E0DF01982F1D929A95E9F7E8E718
:1020F000F2E0DF011D928A95E9F783E00E94C210A9
:102100000E94E40F0895A3E0B0E0E9E8F0E10C9448
:10211000CD2319821A821B8260E0CE0101960E94B3
:10212000221061E0CE0101960E94221062E0CE01F1
:1021300001960E94221043E050E0BE016F5F7F4F86
:1021400088E792E00E94092421E0009709F420E04A
:10215000892B49F089819A81AB8180937802909391
:102160007902A0937A0243E06BE772E088E792E09D
:102170000E94C310182F0E94E80F812F2396E3E0DE
:102180000C94E9230895B0E0A0E0E9ECF0E10C94B0
:10219000C8236C017B01042FC22F222379F081E038
:1021A000809355020E94261C909354028093530200
:1021B00080E0CDB7DEB7E8E00C94E423D09155027F
:1021C000DD23B1F380915302909154020E94B51B1C
:1021D000059770F310E0A801B601C7010E94092419
:1021E000892B31F0A801B601C7010E941624CD2F1A
:1021F000109255028C2FDDCF0E943F0D08950E9452
:10220000BF1B0E940B1E0E94FC0C0E94251E0E94F8
:10221000320D0E94321E0E94371E0E94FC100E9446
:10222000511E0E94D61C0E94100DF5CF9093A30161
:102230008093A20108950E94FF0B089580E00E9400
:10224000EB0F817008950E9483102FEF86E791E0D5
:10225000215080409040E1F700C000000E948310B0
:102260000E941E11882321F00E941B110E94621CF3
:1022700008950E94231108950F931F93CF93DF9326
:102280008C01FC01C081D181CE010E941F242196C6
:10229000F801D183C083DF91CF911F910F910895F1
:1022A00084E0089594E0699FB001112450E0440F48
:1022B000551F640F751F9CE0899F600D711D1124CF
:1022C000CB01889608950F931F93CF93DF938430AB
:1022D000C8F46330B8F44230A8F40E9452118C0163
:1022E0000E941F24C82FD0E0DC2FCC27C801019604
:1022F0000E941F249E01282BC901DF91CF911F91BD
:102300000F91089590E080E0F8CF0F931F93CF9343
:10231000DF93122F032F843078F4633068F4423057
:1023200058F40E945211EC01602F0E943D24612F4D
:10233000CE0101960E943D24DF91CF911F910F9114
:102340000895CF93DF93D0E0C0E040E06C2F8D2F55
:102350000E94B1019C0140E06C2F8D2F0E948511DD
:1023600041E06C2F8D2F0E94B1019C0141E06C2F48
:102370008D2F0E948511CF5FC33039F7DF5FD430D6
:1023800019F7DF91CF910895EF92FF920F931F936A
:10239000CF93DF93EC018A017C01E60EF71ECE019C
:1023A0008896CE15DF0529F4CDB7DEB7E6E00C94AC
:1023B000E623C033D10540F40E941F24F801808336
:1023C0000F5F1F4F2196EBCFF8011082F9CFB0E0DD
:1023D000A0E0EDEEF1E10C94C8237C016A018C01D0
:1023E000060F171FEC01CE018896C017D10729F4FC
:1023F000CDB7DEB7E8E00C94E423C033D10540F458
:10240000FE01EE19FF09EC0DFD1D60810E943D24C7
:102410002196E9CF843038F4633028F4423018F440
:102420000E946311089590E080E0089580E108958E
:1024300088EA93E00895EF92FF920F931F93CF9352
:10244000DF93EC018A017C01E60EF71ECE01885A6B
:102450009F4FCE15DF0529F4CDB7DEB7E6E00C942B
:10246000E623C83A23E0D20740F40E941F24F80173
:1024700080830F5F1F4F2196E9CFF8011082F9CFBB
:10248000B0E0A0E0E6E4F2E10C94C8237C016A012C
:102490008C01060F171FEC01CE01885A9F4FC01701
:1024A000D10729F4CDB7DEB7E8E00C94E423C83AAD
:1024B00023E0D20740F4FE01EE19FF09EC0DFD1DEB
:1024C00060810E943D242196E7CFCF93DF93C8E53A
:1024D000D0E060E0CE010E943D242196C11584E049
:1024E000D807B9F7DF91CF910895A2E0B0E0EBE70C
:1024F000F2E10C94CB23F82E8FE08F15A0F08FEF34
:1025000093E00E941F2481110EC008E510E0F11035
:102510000EC01A83098340E0BE016F5F7F4F8CE3DA
:1025200091E10E94D2162296E5E00C94E723011572
:1025300084E01807C1F3C8010E941F24811101C063
:10254000FA940F5F1F4FE3CFCF93DF93EB018631F8
:102550009C4711F50E94DD0A9D81992399F08A7AA2
:1025600091E009F490E090935602811109C089E24C
:102570000E94B01A0E94910B80E0DF91CF910895E4
:1025800085E3F6CF80915602811104C089E20E9452
:10259000CA1AF0CF85E3FBCF81E0EFCFCF93DF9373
:1025A000EC01FB018581882309F4D2C09E013057DC
:1025B0002332310508F0B2C00E94220C90937702BA
:1025C00080937602FE01E150F047E232F10520F4FB
:1025D000E158FB4D0C94B123809176028160809389
:1025E000760293C0809177028860809377028DC0D5
:1025F000809176028260F3CF809176028460EFCF83
:10260000809176028860EBCF809177028160EDCF78
:10261000809177028260E9CF809176028061DFCF7E
:10262000809176028062DBCF809176028064D7CF82
:102630000E946706809176028068D1CF80917602F1
:102640008C60CDCF809177028360CFCF809176026E
:102650008E7FC5CF80917702877FC7CF809176022A
:102660008D7FBDCF809176028B7FB9CF809176022E
:10267000877FB5CF809177028E7FB7CF8091770229
:102680008D7FB3CF809176028F7EA9CF8091760225
:102690008F7DA5CF809176028F7BA1CF0E946706A8
:1026A000809176028F779BCF80917602837F97CF40
:1026B000809177028C7F99CF8091760282FB992757
:1026C00090F921E0922790FB82F990FB83F987CF64
:1026D00080917702982F909591708E7F892B90FB37
:1026E00081F983CF90917602892F8F7B96FF80644A
:1026F00076CF0E94670690917602892F97FB87F923
:1027000080586DCF81E00E94AA0C80917602909152
:1027100077020E94270C0E94670680E0DF91CF912C
:10272000089580E0F0CF90917602892F8F7E94FFFC
:10273000806155CF90917602892F8E7F90FF8160C6
:102740004ECF90917702892F877F93FF88604DCF7E
:1027500081E0E4CF282F35EB2303C001112497FF3C
:1027600004C080589109892F089580589F4FFBCF4E
:1027700080915D0280FF0DC06091090170E0660FDD
:10278000771F6038710570F56115710569F1862F45
:10279000089581FF07C06091090184E0689FB0013E
:1027A0001124EFCF6091090182FD0AC080915C0283
:1027B0008823A9F02091080160910901821710F087
:1027C00088E0ECCF869FC001112433E0880F991F69
:1027D0003A95E1F7622F70E00E949D23D2CF68E026
:1027E00070E0D5CF8FE7089581E0089580915D0274
:1027F00080FF0CC06091050170E075956795759537
:1028000067956115710549F1862F089581FF06C00E
:102810006091050170E075956795F3CF60910501B2
:1028200082FD0BC090915B029923A1F0609104019D
:1028300080910501961738F0682F70E060387105B7
:1028400000F38FE70895899FC001112470E00E9472
:102850009D23F4CF61E070E0D7CF81E008958D3CF7
:1028600031F40E94B81381958093610208958E3CE3
:1028700019F40E94B813F8CF8F3C31F40E94B813BA
:102880008195809360020895803D19F40E94B813E9
:10289000F8CF893D29F40E94F613809362020895CF
:1028A0008A3D21F40E94F6138195F7CF8B3D31F4D8
:1028B0000E94F61381958093630208958C3D19F46C
:1028C0000E94F613F8CF9FE2980F983070F4815D64
:1028D000990B21E030E001C0220F8A95EAF7809140
:1028E0005F02822B80935F0208958D3D31F48091C9
:1028F0005D02816080935D0208958E3D21F4809198
:102900005D028260F7CF8F3DB9F780915D028460F0
:10291000F1CF409160028D3C59F48091610287FFB4
:102920000DC01092610241110BC010925C0208C0F0
:102930008E3C81F48091610218169CF3442381F04F
:102940008091620290916302892B09F05AC0109223
:102950005B0208958F3C49F447FFF0CF109260026C
:10296000809161028111ECCFE0CF803D19F4141603
:10297000ACF3E4CF90916202893D29F41916F4F684
:1029800010926202DBCF8A3D19F497FFD7CFF8CFC0
:10299000909163028B3D29F497FFD0CF1092630290
:1029A000CDCF8C3D19F41916CCF3C8CF9FE2980F08
:1029B000983090F4815D990B21E030E0B90102C0BC
:1029C000660F771F8A95E2F7CB01809590915F02A1
:1029D000892380935F02B2CF8D3D31F480915D02F7
:1029E0008E7F80935D02AACF8E3D21F480915D029F
:1029F0008D7FF7CF8F3D09F0A1CF80915D028B7F56
:102A0000F0CF08950E94261C9C0190916002809155
:102A10006102982B21F030935A0220935902909131
:102A2000620280916302982B21F030935802209328
:102A300057028EE592E00E94AA19089586E0EEE51D
:102A4000F2E0DF011D928A95E9F710925C02109284
:102A50005B0210925D020895FC01828181110EC01B
:102A6000838181110BC08481811108C091E085812F
:102A7000811101C090E0892F8170089581E0FCCF21
:102A8000A6E0B0E0E6E4F5E10C94CD2386E0EEE5C7
:102A9000F2E0DE01119601900D928A95E1F7109215
:102AA00060021092610210926202109263028B81A6
:102AB0009C81892B89F08091590290915A020E9441
:102AC000B51BAC0190915C029923C9F180910A0178
:102AD0008417150608F440C08D819E81892B91F0E2
:102AE00080915702909158020E94B51BAC019091C1
:102AF0005B02992309F46AC08091060184171506C8
:102B000008F472C0BE016F5F7F4F8EE592E00E94B5
:102B1000FE1A811105C08EE592E00E942C158111EC
:102B20000E94021586E0FE013196AEE5B2E001900A
:102B30000D928A95E1F72696E3E00C94E923209123
:102B40000B018AE0289F900111242417350720F6F5
:102B50009F5F90935C0202C09F3FD1F71B811123BE
:102B600059F00E94B8139FEF11160CF491E0899F61
:102B7000802D1124809360021C81112359F00E9442
:102B8000B8139FEF11160CF491E0899F802D11244A
:102B90008093610280916002882309F49DCF109197
:102BA0006102112309F498CF0E94AA13882351F0DF
:102BB00080936002812F0E94AA13882329F08093BA
:102BC00061028ACF81E0F4CF81E0F9CF2091070143
:102BD0008AE0289F900111242417350708F092CF2E
:102BE0009F5F90935B0202C09F3FD1F71D8111232D
:102BF00059F00E94F6139FEF11160CF491E0899F93
:102C0000802D1124809362021E81112359F00E94AD
:102C1000F6139FEF11160CF491E0899F802D11247B
:102C20008093630280916202882309F46BCF109134
:102C30006302112309F466CF0E94AA13882351F07E
:102C400080936202812F0E94AA13882329F0809327
:102C5000630258CF81E0F4CF81E0F9CFB0E0A0E08B
:102C6000E4E3F6E10C94C723E82FF0E0E854FF4FCB
:102C7000B490282F26952695269530E0F901E85A3C
:102C8000FE4F0491877010E0082E02C0159507953D
:102C90000A94E2F701701127F901E85BFE4FE49016
:102CA000F12C082E02C0F594E7940A94E2F791E023
:102CB000E922FF24F901E85CFE4FC491D0E002C094
:102CC000D595C7958A95E2F7C170DD27C62ED12C20
:102CD0000115110549F5E114F10431F086EE0E9469
:102CE0007F03C601009771F5B6018B2D0E94FB038F
:102CF000C601009779F5E114F104A1F5011511055C
:102D000031F081EE0E94C803C6010097C9F5CD2BB2
:102D100031F08CE20E941304C114D104C9F5CDB77F
:102D2000DEB7E9E00C94E32381EE0E947F03C60145
:102D3000009789F2EFE9FFE03197F1F700C000005A
:102D40000197F6CFEFE9FFE03197F1F700C00000FF
:102D50000197C8CFEFE9FFE03197F1F700C000001D
:102D60000197C7CF86EE0E94C803C601009731F2D3
:102D7000EFE9FFE03197F1F700C000000197F6CFCF
:102D8000EFE9FFE03197F1F700C000000197BDCFF8
:102D90008FE99FE00197F1F700C0000091E0C91AA8
:102DA000D108BACFB0E0A0E0E8EDF6E10C94C7237B
:102DB0008C017B01D42F8AE0B82EC701F801099558
:102DC0008823A9F0813009F058C0C701F80109959E
:102DD000C82F813089F4C701F80109950E941304B6
:102DE0008D2F90E0009709F040C0C111E6CFCDB71C
:102DF000DEB7E9E00C94E323823031F4C701F80137
:102E000009950E947F03ECCF833031F4C701F801AC
:102E100009950E94C803E4CF843011F7C701F80177
:102E20000995C82FD12CC12C2C2F2053330BC9014D
:102E30002A30310568F0C114D10491F28FE99FE086
:102E40000197F1F700C0000091E0C91AD108F3CF53
:102E5000BC9C9001BD9C300D11246C01C20ED31E90
:102E6000C701F8010995C82FDFCFEFE9FFE03197DF
:102E7000F1F700C000000197B5CF6D2F0E942E160C
:102E80009CCF0F931F93CF93DF93C42FD22FFC01BE
:102E900085818823C9F0409366020E94261C909386
:102EA00065028093640280E28C0F883040F4C77022
:102EB00081E001C0880FCA95EAF70E941C04DF91E7
:102EC000CF911F910F91089510916602141332C093
:102ED00080916402909165020E94B51B883C910527
:102EE00048F5C0E2CD0F1D17B9F080E2810F8830A0
:102EF00040F4177081E001C0880F1A95EAF70E942C
:102F00002304C83048F481E09D2F977001C0880FDA
:102F10009A95EAF70E941C04802F0E941304C8307F
:102F200070F6D77081E001C0880FDA95EAF70E9449
:102F30002304C5CF80E28C0F883008F6C77081E08B
:102F400001C0880FCA95EAF7F2CF0F93DB018851D1
:102F50009C4787309105A0F5FC01EF55FB4D0C9483
:102F6000B12306E221EE41EE6AE17CE7CD010E9449
:102F7000411780E00F91089507E225EE45EE6BE1E1
:102F80007CE7F4CF06E221EE40EE68E17CE7EECF8D
:102F900007E225EE44EE69E17CE7E8CF06E221EEA8
:102FA00042EE6CE17CE7E2CF07E225EE46EE6DE112
:102FB0007CE7DCCF08E221E045EE6EE17CE7D6CF8E
:102FC00015968C91882319F010926602D3CF81E078
:102FD000D1CF1F93CF93DF9387372CE7920759F018
:102FE000C1E088379C47E1F4FB01C581CC2371F136
:102FF0000E942C1806C0FB01C581CC23B1F00E94B1
:1030000029180E94DF060E942F18D82F0E942C1822
:10301000C82F0E9429184D2F6C2F0E940608C0E06F
:103020008C2FDF91CF911F9108950E9429180E9443
:10303000EB060E942F18182F0E942C18D82F0E94E0
:103040002918412F6D2F0E940608EACF0E942C18E4
:10305000EECF80910E01089580910D010895809129
:103060000C01089584E290E00E941F24853289F4C7
:1030700085E290E00E941F24843059F486E290E0BB
:103080000E941F2491E0863209F090E0892F817020
:10309000089580E0FCCFCF93C82F6FEF811165E2D8
:1030A00084E290E00E943D246FEFC11164E085E26C
:1030B00090E00E943D246FEFC11166E286E290E04D
:1030C0000E943D24CF910895089587E290E00E94E8
:1030D0001F24682F70E090E080E008950895CF935A
:1030E000C62F0E946E186C2F87E290E00E943D244C
:1030F000CF91089580E00E944B1860E070E0CB0112
:103100000E946F180E94A1110E94651281E00E9426
:103110004B1808950E9464180E9465180E946E184A
:103120000E943218811102C00E947A1808950895F1
:103130009C01FB018581882351F0A9015757403834
:10314000510530F4822F0E94751280E0089581E0CD
:1031500008952FEFFC01208308950E94A918089577
:1031600080E00895B0E0A0E0E8EBF8E10C94C8231B
:10317000EC01E62E0E94B018811110C0E881E150E8
:10318000E331B8F4F0E0E855FB4D0C94B12319821B
:103190008CE08A836E2DCE010E94CD1CCDB7DEB7A8
:1031A000E8E00C94E42389818230C1F028F4813076
:1031B00061F08FEF8883EECF833099F08430C9F7C8
:1031C0001A821B821C821D82E5CF0E94321C0E9443
:1031D000B7236A837B838C839D83DCCF0E94651831
:1031E000F6CF8A81082F10E06E0193E0C90ED11C42
:1031F0009CE1F92EF80E0330110560F6802F0E9435
:10320000EB0FF60181936F010F5F1F4FF012F3CFA9
:10321000C1CF8981823031F0853059F68A810E9490
:103220009718B8CF6A817B818C819D810E94B723DA
:103230000E946F18AFCF4B816A8189810E94631110
:103240009827892798279D838C83A4CF2C813D8143
:103250003227232732274B816A8189810E94851179
:1032600099CF0E94A11196CF6E2DCE010E94AD186C
:1032700091CF0E94161289838DCF0E941812982731
:10328000892798279A83898385CF6B8170E089810C
:103290009A81AE014C5F5F4F9827892798270E943B
:1032A0001B1278CF6B8170E089819A81AE014C5FEF
:1032B0005F4F9827892798270E9440126BCF0E9462
:1032C000651268CF0E945011D6CF6B8170E0898162
:1032D0009A81AE014C5F5F4F9827892798270E94FB
:1032E000C41158CF6B8170E089819A81AE014C5F27
:1032F0005F4F9827892798270E94E7114BCF90931B
:103300006C0280936B020895E0916B02F0916C0265
:10331000309729F00190F081E02D0995089580E023
:103320000895E0916B02F0916C02309721F00280D9
:10333000F381E02D09950895E0916B02F0916C0204
:10334000309739F026E0DC012C930480F581E02DE4
:1033500009950895E0916B02F0916C02309739F075
:1033600022E0DC012C930680F781E02D0995089579
:10337000A3E0B0E0EEEBF9E10C94CE2320916902DA
:1033800030916A0228173907A1F090936A0280935E
:103390006902E0916B02F0916C02309751F023E0EA
:1033A00029839B838A830084F185E02DCE010196D9
:1033B00009952396E2E00C94EA23A3E0B0E0E3EE63
:1033C000F9E10C94CE23209167023091680228170E
:1033D0003907A1F09093680280936702E0916B0235
:1033E000F0916C02309751F024E029839B838A830B
:1033F0000084F185E02DCE01019609952396E2E047
:103400000C94EA23CF93DF93C0910201D091030182
:1034100022960E94741B813081F48091760287FF8E
:103420000CC0C0910001D091010122969EE180E084
:10343000915028F4DF91CF91089596E0F8CF29912B
:103440002223B1F38F5FF4CFCF93C82F811102C035
:1034500080E024C00E94741B813011F580917602B7
:1034600087FF1EC0EC2FE695E695E695EE3180F7D6
:103470008091000190910101E80FF92FF11D228147
:1034800030E0C77081E090E002C0880F991FCA95B4
:10349000E2F72823392381E0232BD1F2CF9108953D
:1034A0008091020190910301FC01329608962191CE
:1034B0002C1721F0E817F907D1F7CACF81E0EECF3A
:1034C0009C01FC0132969FEF80E04191461751F03C
:1034D0009F3F19F4411101C0982F8F5F8630A9F7E3
:1034E0009F3F09F40895290F311D97FD3A95F90181
:1034F00062830895FC01329608962191261303C039
:10350000DF0111971C92E817F907B9F70895E62F24
:10351000E695E695E695EE3168F4E80FF92FF11D92
:10352000677021E030E001C0220F6A95EAF78281DE
:10353000822B82830895E62FE695E695E695EE3197
:1035400070F4E80FF92FF11D677021E030E001C041
:10355000220F6A95EAF72095828128232283089515
:10356000CF93C82F0E94741B6C2F813061F480911F
:10357000760287FF08C080910001909101010E94AE
:10358000871ACF91089580910201909103010E94C2
:10359000601AF7CFCF93C82F0E94741B6C2F813015
:1035A00061F48091760287FF08C0809100019091BC
:1035B00001010E949B1ACF91089580910201909180
:1035C00003010E947A1AF7CF0E94741B813079F4AC
:1035D0008091760287FF0BC0E0910001F09101011C
:1035E00032968EE1DF011D928A95E9F70895E09108
:1035F0000201F0910301329686E0F4CFDC01FB0179
:1036000011969C9111978181981322C012968C91EA
:103610001297882319F0928189131AC013968C91FE
:103620001397882319F09381891312C015968C91F2
:103630001597882319F0958189130AC014969C91D7
:10364000992321F081E02481291303C080E001C087
:1036500081E08170089508950E942B1B08958111C7
:103660000EC081E08093120160910F0170911001F2
:1036700080911101909112010E942C1B089582E00B
:10368000F1CF83E08093120160910F0170911001DE
:1036900080911101909112010E942C1B08950E94AB
:1036A0002F1B089581E08093120160910F017091AA
:1036B000100180911101909112010E942C1B08951C
:1036C0000E94521B089591E0811101C090E09093F7
:1036D000110160910F017091100180911101909181
:1036E00012010E942C1B089580911101089580936E
:1036F000100160910F017091100180911101909162
:1037000012010E942C1B089580911001089580934E
:103710000F0160910F017091100180911101909142
:1037200012010E942C1B089580910F0108950895A5
:1037300008950E94981B0895089508950E94971B6C
:103740000895CF930E949C1B0E9483100E949D1B92
:10375000C0E08C2F0E94EB0F811105C0CF5FC330FA
:10376000C1F7CF91089581E0FCCFCF93DF93EC01B7
:103770000E94261C8C1B9D0BDF91CF91089585B76D
:10378000806885BF85B7806885BF08951F921FB682
:103790001F9211248F939F93AF93BF9380916D02DB
:1037A000811113C080917E0290917F02A0918002CE
:1037B000B09181024196A11DB11D80937E0290932C
:1037C0007F02A0938002B0938102BF91AF919F913D
:1037D0008F911F901FBE1F90189580918602843094
:1037E00031F10E94F60210926D0288E190E020E42F
:1037F0000FB6F894A895809360000FBE20936000E8
:1038000083B7817F846083BF83B7816083BF7894EF
:10381000889583B78E7F83BF0FB6F894A895809163
:103820006000886180936000109260000FBE089570
:103830000E9467060E94FD02089582E084BD93E025
:1038400095BD9AEF97BD80936E0008952FB7F894B9
:1038500080917E0290917F02A0918002B0918102BE
:103860002FBF08952FB7F89460917E0270917F0268
:1038700080918002909181022FBF089578941F92C9
:103880001FB61F9211248F939F93AF93BF93809184
:103890007E0290917F02A0918002B09181020196F8
:1038A000A11DB11D80937E0290937F02A0938002A0
:1038B000B0938102BF91AF919F918F911F901FBED6
:1038C0001F90189587E797E7909301088093000869
:1038D00088E19AE00FB6F894A895809360000FBE37
:1038E00090936000FFCF88E19AE00FB6F894A89516
:1038F000809360000FBE90936000FFCF9B01BA01E0
:10390000909186029430E9F48F708093E9009FEFE4
:103910008091E800915085FD06C085ED8A95F1F70C
:1039200000009111F5CF8091E80085FF0AC050E0BA
:1039300040E0C9010E94C71E8091E8008E77809305
:10394000E800089543E050E0BC0184E00E947E1C42
:10395000089546E050E0BC0184E00E947E1C08957A
:1039600040E250E0BC0184E00E947E1C0895CF93A9
:10397000DF93EC010E94741B48E050E0BE0181E03F
:103980000E947E1C88E0FE01AEE6B2E001900D923E
:103990008A95E1F7DF91CF910895603231F440E2EA
:1039A00050E0BC0182E00E947E1C0895A0E2B0E0DD
:1039B000ECEDFCE10C94CE2380918602843009F575
:1039C00083E08093E9008091E80082FF1AC0809133
:1039D000E80090E085FF09C050E040E060E270E060
:1039E000CE0101960E94161F91E08091E8008B772E
:1039F0008093E800992329F060E2CE0101960E94AD
:103A0000B218A096E2E00C94EA238091850281111D
:103A100009C00E94A6200E9403218091E2008460D8
:103A20008093E20008951092850208950E94521B2F
:103A300081E00E94631B08956091820281E0611120
:103A400001C080E00E94411B08959091860281E0B0
:103A5000943009F080E0609182020E944F1B08952B
:103A600042E061EC81E00E94222042E261EC84E0CD
:103A70000E94222042E261EC82E00E94222042E287
:103A800060EC83E00E9422209091860281E09430D5
:103A900009F080E0609182020E942F1B08958091BE
:103AA0008802833009F463C030F48130E1F1823060
:103AB00009F4A0C008958A3009F48CC08B3009F451
:103AC00071C0893009F052C080918702813209F0BB
:103AD0004DC080918B0290918C02009719F0029753
:103AE00009F044C08091E800877F8093E8008091CE
:103AF000E80082FF37C09091F3008091F2000297B6
:103B000031F48091F100813011F0863021F4809100
:103B1000F1000E94771B8091E8008B778093E8008A
:103B20000E94562023C080918702813AF9F4809147
:103B3000E800877F8093E80080918B0290918C024F
:103B4000892B61F468E08EE692E070E00E94651FC8
:103B50008091E8008B778093E800089560E090E022
:103B600080E0F3CF809186028111C1CF08958091CA
:103B70008702813AD9F780918B0290918C02892B30
:103B8000A9F78091E800877F8093E8008091E800A2
:103B900080FFFCCF0E94741B8093F1008091E800AD
:103BA0008E77BCCF80918702813201F780918B02A2
:103BB00090918C02892BD1F68091E800877F8093C9
:103BC000E8000E945620809189020E94631B0E9497
:103BD0006706089580918702813241F68091E8005E
:103BE000877F8093E8000E94562080918A020E947D
:103BF000871B089580918702813A09F0B7CF8091A1
:103C0000E800877F8093E8008091E80080FFFCCF88
:103C10000E94941BC1CF84B7877F84BF0FB6F894EE
:103C2000A895809160008861809360001092600088
:103C30000FBE80E890E00FB6F894809361009093F7
:103C400061000FBE0E94601B08950E94A6200E9482
:103C50000321E2EEF0E080818460808378940E940A
:103C60008223089583E191E00E947F190895809155
:103C70008602853031F480918602853019F00E94E9
:103C8000181C08950E94ED1B0E94A11B882399F324
:103C900080918402882379F30E94B11E0E946706F6
:103CA000EACF08959A0140918D0250918E020E94B0
:103CB0005A1E0895492F55274330510521F168F4C4
:103CC0004130510509F443C04230510509F444C064
:103CD00090E080E050E040E026C04132510551F1D3
:103CE00042325105A9F76330710590F7FB01EE0FE1
:103CF000FF1FEB56FE4F408151816E567E4FFB01F8
:103D0000808190E010C099278130910581F0009763
:103D100029F00297E9F6E8E6F1E002C0E6E9F1E011
:103D2000849190E0AF01F901518340830895EAE75F
:103D3000F1E0F6CF6330710558F6660F771FFB018F
:103D4000E556FE4F4081518189E090E0ECCF82E161
:103D500090E045EF51E0E7CF8BE590E04AE951E094
:103D6000E2CF80E189BD82E189BD09B400FEFDCFCB
:103D70008091D8008F7D8093D8008091E000826090
:103D80008093E0008091E00081FDFCCF0895AF9228
:103D9000BF92CF92DF92FF920F931F93CF93DF9347
:103DA0006C01EB018A010E947520F82E811123C05D
:103DB0000115110539F0F80180819181C81BD90BDB
:103DC000C80ED91EB12CA12C2097A9F08091E80033
:103DD00085FD22C08091E8008E778093E800011570
:103DE0001105A1F0F80180819181A80EB91EB18260
:103DF000A08285E0F82E8F2DDF91CF911F910F913A
:103E0000FF90DF90CF90BF90AF9008950E947520F3
:103E10008823D1F2F82EEFCFF60181916F018093C4
:103E2000F1002197FFEFAF1ABF0ACECFAF92BF923A
:103E3000CF92DF92FF920F931F93CF93DF936C018A
:103E4000EB018A010E947520F82E811123C0011513
:103E5000110539F0F80180819181C81BD90BC80E7A
:103E6000D91EB12CA12C2097A9F08091E80085FDE6
:103E700022C08091E8008B778093E800011511053E
:103E8000A1F0F80180819181A80EB91EB182A082B3
:103E900085E0F82E8F2DDF91CF911F910F91FF902C
:103EA000DF90CF90BF90AF9008950E947520882337
:103EB000D1F2F82EEFCF8091F100F60181936F01DE
:103EC0002197FFEFAF1ABF0ACECFFC0180918D0280
:103ED00090918E0286179707A0F06115710529F45D
:103EE0009091E8009E779093E80090E0611571054D
:103EF00051F4911108C08091E80082FF34C080E045
:103F00000895BC01F2CF809186028823C1F18530EB
:103F1000C1F18091E80083FD30C08091E80082FD0E
:103F2000EACF8091E80080FFE1CF8091F3002091FB
:103F3000F200382F6115710519F02830310558F05D
:103F400091E02830310509F090E02091E8002E77CB
:103F50002093E800CBCF81918093F10061507109EB
:103F60002F5F3F4FE7CF80918602882341F0853055
:103F700041F08091E80083FFBECF81E0089582E0A8
:103F8000089583E00895FC0180918D0290918E0246
:103F900086179707A0F06115710529F48091E80054
:103FA0008E778093E80090E06115710551F49111CE
:103FB00008C08091E80082FF35C080E00895BC0110
:103FC000F2CF809186028823C9F18530C9F18091B2
:103FD000E80083FD31C08091E80082FDEACF809146
:103FE000E80080FFE1CF8091F3002091F200382FAC
:103FF0006115710519F02830310558F091E028302D
:10400000310509F090E08091E8008E778093E80018
:10401000CBCF84918093F1003196615071092F5F6D
:104020003F4FE6CF80918602882341F0853041F0F2
:104030008091E80083FFBDCF81E0089582E008957C
:1040400083E00895982F973028F08F708093E900CF
:1040500081E008959093E900242F762F50E098177F
:1040600031F07091EC002091ED005091F00021FDB5
:1040700002C09F5FE8CF3091EB003E7F3093EB00B2
:104080003091ED003D7F3093ED003091EB003160D9
:104090003093EB007093EC002093ED005093F00010
:1040A0002091EE0027FDE5CF80E008958091870202
:1040B00087FF13C08091E80082FF06C08091E8006E
:1040C0008B778093E80004C0809186028111F2CF43
:1040D0000895809186028823D9F38091E80080FFBB
:1040E000F8CF8091E8008E77ECCF2091E4003091FA
:1040F000E50095E6A9012091EC00822F817020FF58
:1041000006C08091E80080FF06C080E008952091FD
:10411000E80022FD1AC080918602882389F085304C
:1041200089F08091EB0085FD0FC02091E400309173
:10413000E50042175307F9F29150E1F684E0089543
:1041400082E0089583E0089581E008950E9415219A
:104150000E941D21E0EEF0E0808181608083E8ED27
:10416000F0E080818F77808319BCA7EDB0E08C915F
:104170008E7F8C9380818F7E80831092850208953C
:104180000F931F93CF93DF930E9415210E941D214F
:10419000C8EDD0E088818F778883888180688883A4
:1041A00088818F7D888319BC1092860210928202CA
:1041B000109284021092830200EE10E0F8018081D8
:1041C0008B7F808388818160888342E060E080E02B
:1041D0000E942220E1EEF0E080818E7F8083E2EE7B
:1041E000F0E0808181608083808188608083F80135
:1041F00080818E7F8083888180618883DF91CF91E9
:104200001F910F910895E8EDF0E080818F7E80830B
:10421000E7EDF0E080818160808384E082BF81E00F
:10422000809385020E94C0200895E8EDF0E080812F
:104230008E7F80831092E20008951092DA0010922F
:10424000E10008951F920F920FB60F9211242F9341
:104250003F934F935F936F937F938F939F93AF930E
:10426000BF93EF93FF938091E10082FF0BC0809199
:10427000E20082FF07C08091E1008B7F8093E10024
:104280000E9481238091DA0080FF19C08091D800BC
:1042900080FF15C08091DA008E7F8093DA008091D4
:1042A000D90080FF96C080E189BD82E189BD09B453
:1042B00000FEFDCF81E0809386020E94051D809163
:1042C000E10080FF19C08091E20080FF15C080915D
:1042D000E2008E7F8093E2008091E2008061809313
:1042E000E2008091D80080628093D80019BC85E0FC
:1042F000809386020E941C1D8091E10084FF2BC0E8
:104300008091E20084FF27C080E189BD82E189BD00
:1043100089B5982F917080FFFBCF8091D8008F7D59
:104320008093D8008091E1008F7E8093E10080919E
:10433000E2008F7E8093E2008091E20081608093B2
:10434000E20080918202882309F449C084E08093CE
:1043500086020E94251D8091E10083FF29C0809183
:10436000E20083FF25C08091E100877F8093E10018
:1043700082E080938602109282028091E1008E7F1B
:104380008093E1008091E2008E7F8093E200809133
:10439000E20080618093E20042E060E080E00E9401
:1043A00022208091F00088608093F0000E94161D0A
:1043B000FF91EF91BF91AF919F918F917F916F91FD
:1043C0005F914F913F912F910F900FBE0F901F90D3
:1043D000189519BC109286020E94131D70CF80910F
:1043E000E30087FD93E090938602B3CF1F920F9274
:1043F0000FB60F9211242F933F934F935F936F93B8
:104400007F938F939F93AF93BF93CF93DF93EF935C
:10441000FF93D091E900DF708091EC00C82FC1704C
:1044200080FDC0E81092E9008091F000877F8093C2
:10443000F00078940E943A221092E9008091F000F6
:1044400088608093F000CD2BCF70C093E900FF917E
:10445000EF91DF91CF91BF91AF919F918F917F911C
:104460006F915F914F913F912F910F900FBE0F90E1
:104470001F901895AAE2B0E0E0E4F2E20C94CD239C
:1044800087E892E02091F100FC012193CF01F2E056
:104490008F389F07B9F70E944F1D8091E80083FF76
:1044A0001EC180918702909188029A3008F017C14E
:1044B000E92FF0E0E554FB4D0C94B123803899F0DE
:1044C000823809F00CC180918B028F70873008F020
:1044D00006C18093E9008091EB0085FB882780F975
:1044E0001092E90006C0809183029091840291119C
:1044F00082609091E800977F9093E8008093F100AC
:104500001092F1008091E8008E77E5C0882309F4CD
:10451000D3C0823009F0E3C0809189028111D6C0F6
:1045200080918B028F702FEF280F263008F0D7C0B4
:104530008093E9002091EB0020FFC8C0933031F454
:104540008091EB0080628093EB00C0C09091EB0003
:1045500090619093EB0021E030E001C0220F8A953A
:10456000EAF72093EA001092EA008091EB0088605D
:10457000EACF8111B4C0109189021F778091E300C6
:104580008078812B8093E3008091E800877F80937F
:10459000E8000E9456208091E80080FFFCCF8091C7
:1045A000E30080688093E30082E0111183E0809350
:1045B000860295C08058823008F091C080918902AF
:1045C00090918A028C3D23E09207A1F583E08A83D3
:1045D0008AE289834FB7F894DE01139620E03EE02B
:1045E00051E2E32FF0E050935700E49120FF03C025
:1045F000E295EF703F5FEF708E2F90E0EA30C0F0F1
:10460000C7968D939D932F5F243159F74FBF8091AB
:10461000E800877F8093E8006AE270E0CE010196AF
:104620000E94651F8091E8008B778093E80057C057
:10463000C096E7CF60918B0270918C02AE014F5F04
:104640005F4F0E94521EBC01892B09F448C0909113
:10465000E800977F9093E80089819A810E94C31FA8
:10466000E1CF8038E1F58091E800877F8093E80012
:10467000809182028093F10045CF811130C09091EA
:104680008902923060F58091E800877F8093E8008E
:10469000909382020E94562080918202882311F01A
:1046A00084E005C08091E30087FDFACF81E080932C
:1046B00086020E94301D13C080918902813079F4F6
:1046C00081E0933009F080E0809384021092E90049
:1046D0008091E800877F8093E8000E9456208091B7
:1046E000E80083FF0AC08091E800877F8093E8009C
:1046F0008091EB0080628093EB00AA96E3E00C943B
:10470000E9230895CF93809186028823A1F0C09178
:10471000E900CF709091EC00892F817090FD80E8C6
:10472000C82B1092E9008091E80083FD0E943A2294
:10473000CF70C093E900CF91089597FB072E16F430
:10474000009407D077FD09D00E94F52307FC05D01F
:104750003EF4909581959F4F0895709561957F4F98
:104760000895EE0FFF1F0590F491E02D099469273D
:104770009627692778278727782708952F923F92D1
:104780004F925F926F927F928F929F92AF92BF9261
:10479000CF92DF92EF92FF920F931F93CF93DF930D
:1047A000CDB7DEB7CA1BDB0B0FB6F894DEBF0FBE6A
:1047B000CDBF09942A88398848885F846E847D84B7
:1047C0008C849B84AA84B984C884DF80EE80FD80B9
:1047D0000C811B81AA81B981CE0FD11D0FB6F8942F
:1047E000DEBF0FBECDBFED010895AA1BBB1B51E17B
:1047F00007C0AA1FBB1FA617B70710F0A61BB70B51
:10480000881F991F5A95A9F780959095BC01CD01F5
:104810000895FB01DC0104C08D910190801921F401
:1048200041505040C8F7881B990B0895FB01DC01EB
:1048300002C001900D9241505040D8F70895F99967
:10484000FECF92BD81BDF89A992780B50895A8E161
:10485000B0E042E050E00C946324DC01A40FB51FEB
:104860004150504048F0CB01840F951F2E910E947B
:104870003E2441505040D0F70895262FF999FECF9D
:1048800092BD81BDF89A019700B4021639F01FBAA3
:1048900020BD0FB6F894FA9AF99A0FBE08950396C0
:1048A000272F0E943E240E943D24252F0E943E2453
:1048B000242F0C943E240196272F0E943E240C9412
:1048C0003D24DC01CB01FC01F999FECF06C0F2BD0D
:1048D000E1BDF89A319600B40D9241505040B8F7BE
:1048E0000895F894FFCF6B046B04A904A9040D0587
:1048F00029059A049A042E059505A405A4052613F6
:104900009A132E13F812FC123213001336134213AB
:104910000C1393131013461314134A137213181322
:104920004E1379131E1354135C1304133A13081314
:104930003E1322135813681382139113F2122A1391
:10494000A113C217C817B117BC17CE17D417DA179F
:10495000C718D31809191B19261931193419341914
:104960003419D918D91839193D19451952195F192F
:104970006219651972195E2286226F2386226F23BF
:0A498000B922DA226F2331233D2310
:10498A001B023B02280850011E0A140103020100FF
:10499A00000100841BB71CB01CA91CA21CE200E980
:1049AA0000EA00B500B600B700CD008301CC008A4A
:1049BA0001920194012102230224022502260227E0
:1049CA00022A02B300B4006F0070009F01CB019F5E
:1049DA0002A002818283E200E900EA00B500B60083
:1049EA00B700CD008301CC008A0192019401210213
:1049FA00230224022502260227022A02B300B40057
:104A0A006F0070009F01CB019F02A002818283F791
:104A1A0032364422B6DF0207022902AC01C501E59B
:024A2A00010089
:00000001FF
